:100000000C943E000C9448000C9448000C9448005A
:100010000C9448000C9448000C9448000C94480040
:100020000C9448000C9448000C9448000C94480030
:100030000C9448000C9448000C9448000C94480020
:100040000C9448000C9448000C9448000C94480010
:100050000C9448000C9448000C9448000C94480000
:100060000C9448000C9448000C9448000C944800F0
:100070000C9448000C9448000C94480011241FBEB6
:10008000CFEFD8E0DEBFCDBF0E9471000C94AB0073
:100090000C9400006AE00E949F008295807F892B6B
:1000A00008959FEF91B994B997B990E89AB9262F1E
:1000B000207F22B921E028B99BB992E098B96295D6
:1000C000607F62B91BB818B898E095B990E295B90D
:1000D000982F907F92B990E495B98295807F82B9EC
:1000E000089580EF81B980EE84B983E087B980E814
:1000F0008AB990ED92B992E098B98BB91BB818B84B
:1001000090EC92B991E098B91BB818B890EB92B9FD
:1001100090E495B985B915B815B890EA92B990E20E
:1001200095B92FEF39E698E1215030409040E1F742
:1001300000C000008BB985B990E080E00895991B5C
:1001400079E004C0991F961708F0961B881F7A95CE
:0A015000C9F780950895F894FFCFD9
:00000001FF
